:020000040800F2
:1000000000110020890100083F250008831F000817
:100010003D250008A9040008BD28000800000000D4
:100020000000000000000000000000004325000860
:10003000B9040008000000004125000861250008FF
:10004000A3010008A3010008A3010008A301000800
:10005000A3010008A3010008A3010008A3010008F0
:10006000A3010008A3010008A3010008A3010008E0
:10007000A3010008A3010008A3010008A3010008D0
:10008000A3010008A3010008A3010008A3010008C0
:10009000A3010008A3010008A3010008A3010008B0
:1000A000A3010008A3010008A3010008A3010008A0
:1000B000A3010008A3010008A3010008A301000890
:1000C000A3010008A3010008A3010008A301000880
:1000D000A3010008B1280008A3010008A30100083B
:1000E000A3010008A3010008A301000800F002F822
:1000F00000F03AF80AA090E8000C82448344AAF188
:100100000107DA4501D100F02FF8AFF2090EBAE885
:100110000F0013F0010F18BFFB1A43F0010318473B
:100120006042000080420000103A24BF78C878C1C5
:10013000FAD8520724BF30C830C144BF04680C60ED
:10014000704700000023002400250026103A28BF35
:1001500078C1FBD8520728BF30C148BF0B60704739
:100160001FB51FBD10B510BD00F08AF81146FFF78E
:10017000F7FF02F001FC00F0A8F803B4FFF7F2FF6C
:1001800003BC00F0AFF80000094880470948004769
:10019000FEE7FEE7FEE7FEE7FEE7FEE7FEE7FEE737
:1001A000FEE7FEE704480549054A064B7047000094
:1001B000C5250008ED000008000B002000110020FC
:1001C000000D0020000D002010B5203AC0F00B807B
:1001D000B1E81850203AA0E81850B1E81850A0E84B
:1001E0001850BFF4F5AF5FEA027C24BFB1E81850A5
:1001F000A0E8185044BF18C918C0BDE810405FEA15
:10020000827C24BF51F8043B40F8043B08BF704790
:10021000D20728BF31F8023B48BF11F8012B28BF95
:1002200020F8023B48BF00F8012B70474FF0000256
:1002300000B5134694469646203922BFA0E80C50DC
:10024000A0E80C50B1F12001BFF4F7AF090728BFB7
:10025000A0E80C5048BF0CC05DF804EB890028BF33
:1002600040F8042B08BF704748BF20F8022B11F05C
:10027000804F18BF00F8012B7047704770477047D8
:10028000754600F02BF8AE4605006946534620F04F
:100290000700854618B020B5FFF784FFBDE8204071
:1002A0004FF000064FF000074FF000084FF0000B32
:1002B00021F00701AC46ACE8C009ACE8C009ACE8E5
:1002C000C009ACE8C0098D46704710B50446AFF3CD
:1002D00000802046BDE81040FFF74FBF0048704740
:1002E000A00A002001491820ABBEFEE7260002004C
:1002F0007047000070B5044600688168C943C907AB
:1003000017D1816821F00101816000F0A7FC05464A
:100310000AE000BF00F0A2FC401B022804D92068BC
:100320008068C043C00706D020688068C043C0070B
:10033000F0D0002070BDA06A40F01000A062E06A1A
:1003400040F00100E062012070BD0000F8B5002619
:100350000446009600688168C943C9072DD08168AA
:1003600041F001018160164816490068B0FBF1F0C8
:1003700000E0401E00900028FBD100F06FFC054615
:1003800016E000BF00F06AFC401B022810D920686C
:100390008068C043C0070BD0A06A40F01000A06284
:1003A000E06A40F00100E06284F824600120F8BDBA
:1003B00020688068C043C007E4D10020F8BD000079
:1003C0001400002040420F001CB501238DF80400EA
:1003D000064801AA462140680090054800F030FE1A
:1003E00003496FF01000096848611CBD4C0A0020E9
:1003F0006C00002070B512481049002401601149BA
:10040000C0E901144FF48041C0E9034144618461B3
:10041000C461046200F028FC0B4D78206860102055
:1004200028702C740120FFF7CFFF0720FFF7CCFFC7
:100430002878BDE87040FFF7C7BF000000540040B7
:100440006C000020A08601004C0A00201CB5134C53
:1004500000200190606802234000009001AA46211C
:100460000F4800F0C5FC822000F0ECFA9DF8040073
:100470009DF8051001EB002003F004FE03F092FC50
:100480004FF03332074B03F02DF903F051F8E060E1
:100490000A2000F0D7FAE0681CBD00004C0A0020DA
:1004A0006C0000203333F33FFEE700000149086091
:1004B000704700003000002070470000F8B50024AD
:1004C000009490F824202546012A12D0012280F8B9
:1004D00024204A681F23072A0DD20668776B521E14
:1004E00002EB820293409F430B6893401F43776364
:1004F00019E00220F8BD06680D2A0AD2376BD21F18
:1005000002EB820293409F430B6893401F43376383
:1005100009E0F76A0D3A02EB820293409F430B68B1
:1005200093401F43F7620A68072306680A2A0AD322
:10053000F7680A3A02EB420293409F438B6893406C
:100540001F43F76008E0376902EB420293409F4384
:100550008B6893401F4337610A68102A01D0112A23
:1005600020D1124B02689A4217D193681B0219D40A
:10057000936843F4000393600968102912D10C4971
:100580000C4A0968B1FBF2F101EB8101490000E07E
:10059000491E00910029FBD104E0816A41F020014D
:1005A0008162012480F824502046F8BD00240140D7
:1005B0001400002040420F000068C06C704700002B
:1005C0002DE9F0414FF0000704003D467ED0A06ABF
:1005D000002628B9E66284F82460204600F07EF800
:1005E0002046FFF787FEA16AC90600D420B1A06AA1
:1005F00040F01000A06269E0A16A21F4885141F046
:100600000201A1626268E169237B0A4347EA430170
:100610000A43A1684FF48077B94209D0012907D075
:100620005FF0000194F814C0BCF1010F02D00AE0A1
:100630003946F7E7F3B1A36A43F02003A362E36A04
:1006400043F00103E3622368D3F804C02CF4694C3F
:100650004CEA010CC3F804C021688B68DFF870C055
:1006600003EA0C0313438B60A168B9420BD0012944
:1006700009D00CE0DFF85CC0A3690CEB43330B43FB
:1006800043F40061DFE7218A0D05A5F58015216897
:10069000CB6A23F470032B43CB62216889680E4B2D
:1006A0001940914208D1E662A16A21F0020141F0AD
:1006B0000101A162BDE8F081A06A20F0020040F0D3
:1006C0001000A062E06A40F00100E0620120F1E762
:1006D000FDF7E1FF00E0FFFFFE0E1FFF00B585B054
:1006E0000021009101910291039100680E49884216
:1006F00018D10E48816941F400718161816901F46A
:1007000000710491816941F0040181618069694649
:1007100000F004000490022000900320019004489F
:1007200000F0A2F905B000BD002401400010024015
:10073000000801402DE9F84300270D4604460097C4
:1007400000F08CFA804620688168C90508D5A06A47
:1007500040F02000A06284F824700120BDE8F883F6
:100760004168C90503D4C06A10F4700F2AD0022072
:1007700000F0C2FD3B490968B1FBF0F6206803694F
:1007800039490B424FEA61014FEAA1121FD1C368F8
:100790004FEA611C13EA0C0F19D103690B4225D1F2
:1007A000C068104222D1142023E0681C0AD02DB169
:1007B00000F054FAA0EB0800A84203D920680068B2
:1007C000800725D5206800688007EED52DE00369F5
:1007D0000B4202D1C168114206D0026923490A4284
:1007E00006D1C068084203D1542002E0292000E06D
:1007F000FC204643009816E0681C11D02DB100F093
:100800002DFAA0EB0800A8420AD90098B04207D2FE
:10081000A06A40F00400A06284F8247003209DE7E1
:100820000098401C0090B042E6D321686FF012009F
:100830000860A06A40F40070A06220688068C0F37D
:10084000424007280CD1207B50B9A06A20F4807068
:10085000A062A06AC00403D4A06A40F00100A062B4
:1008600000207BE7140000202449922449922400B0
:1008700070B5044690F8240001280DD0012084F8BA
:1008800024002046FFF762FD02004FF0000005D073
:1008900084F82400104670BD022070BDA16A40F2A9
:1008A0000123994341F48071A1621F4D23681F49C0
:1008B000AB4218D10E6816F4702F14D0A66A46F415
:1008C0008016A6620E68760505D5A66A26F400563F
:1008D00046F48056A662A66AF6040AD5E66A26F0B1
:1008E0000606E66206E0A66A26F48016A6625E6840
:1008F000E9E7E06284F824006FF0020018602068E5
:100900008368C3F34243072B05D1A84208D1096885
:1009100011F4702F04D0816841F480118160B9E72F
:10092000816841F4A001F9E7002801400424014056
:1009300010B5044690F82400012807D0012084F85F
:1009400024002046FFF7D6FC10B107E0022010BDBE
:10095000A16A21F4885141F00101A162002184F8CB
:10096000241010BD10B590F821100022022905D0E6
:100970000421816380F82020012010BD01680B68EC
:1009800023F00E030B6001680B6823F001030B607A
:1009900090F84030C46B012101FA03F3636080F8E2
:1009A000211080F82020104610BD000010B590F8EE
:1009B00021100024022903D00421816301243DE099
:1009C00001680A6822F00E020A6001680A6822F0D3
:1009D00001020A601A4A0168914201D1012121E015
:1009E000174A1432914201D110211BE0144A2832D7
:1009F000914201D1891515E0114A3C32914201D151
:100A000089140FE00E4A5032914202D14FF48031E6
:100A100008E00B4A6432914202D14FF4801101E0A8
:100A20004FF08071064A083A5160012180F8211088
:100A3000002180F82010416B01B18847204610BD8D
:100A40000800024070B5044600F008F90546601C35
:100A500002D004480078044400F000F9401BA04292
:100A6000FAD370BD080000202DE9F84FDFF8B891E7
:100A70000024A9F1040B23460F2709F1040AABF166
:100A8000040EC9E00125A5402A40AA427DD1674E47
:100A9000D1F804C0ACEB0608B44532D014DCBCF18C
:100AA000030F3AD009DCBCF1000F2AD0BCF1010FD2
:100AB0001CD0BCF1020F31D11DE0BCF1110F17D0D9
:100AC000BCF1120F2AD119E0B8F5881F19D006DC45
:100AD000B8F5803F15D0B8F5801F1FD111E0B8F5EB
:100AE000001F0ED0B8F5041F18D10AE0CB6815E03E
:100AF000CB681B1D12E0CB6808330FE0CB680C33CA
:100B00000CE08B682BB1012B4FF0080303D045613B
:100B100004E0042302E0056100E00023FF2A01D87D
:100B2000064601E000F104064FEA840501D9A5F16B
:100B30002005D6F8008007FA05FC28EA0C0803FA1D
:100B400005F548EA0508C6F800804D68ED0062D555
:100B5000374DAE6946F00106AE61AD6924F003067B
:100B600005F001050095334D06EB050CDCF8085047
:100B7000A607360F07FA06F825EA0805DFF8B88059
:100B8000404503D14FF0000817E044E0DFF8AC80A7
:100B9000404502D14FF001080FE0DFF8A480404546
:100BA00002D14FF0020808E0DFF89880404502D1FA
:100BB0004FF0030801E04FF0040808FA06F848EA8D
:100BC0000508CCF808804D68D9F80060ED024D4664
:100BD00001D5164300E096432E604D68DAF80060B8
:100BE000AD02554601D5164300E096432E604D6890
:100BF000DBF80060AD035D4601D5164300E0964387
:100C00002E604D68DEF80060ED03754601D5164391
:100C100000E096432E60641C0D682A46E5407FF490
:100C200031AFBDE8F88F000008040140000011104A
:100C3000001002400000014000080140000C01408B
:100C400000100140001401408068084000D00120DD
:100C500070470AB1016170470904FBE701488068E9
:100C6000704700000800002070B5040025D094F8FB
:100C70003D00002520B984F83C50204600F076FA6B
:100C8000242084F83D002068016821F00101016002
:100C90002068016841F4004101602068016821F486
:100CA0000041016000F086FC4D4A6168914201D824
:100CB0004C4900E04C49884201D2012070BD4B49AB
:100CC0002368B0FBF1F15E6826F03F060E435E60DC
:100CD0006368934206D94FF4967359434FF47A737D
:100CE000B1FBF3F12368491C1E6A26F03F0631432D
:100CF00019626168914210D84900401EB0FBF1F2C0
:100D0000521CC2F30B02042A01D2042022E0B0FBE1
:100D1000F1F0401CC0F30B001CE0A268F2B301EB41
:100D2000C10303EB0116431EB3FBF6F35B1C43F454
:100D300080431B0549D092B301EBC10202EB0111C4
:100D4000401EB0FBF1F0401CC0F30B0040F48040AB
:100D500040F400402168CA694CF6FF739A4310437F
:100D6000C861D4E9071001432068026822F0C0027C
:100D700011430160D4E9030101432068826848F20D
:100D8000FF339A4311438160D4E905010843216888
:100D9000CA6822F0FF021043C86001E00EE016E0CE
:100DA0002068016841F0010101602564202084F879
:100DB0003D00256384F83E50002070BD01EB4106E4
:100DC000431EB3FBF6F35B1CB3E70120C2E701EB64
:100DD0004101401EB0FBF1F0401CC0F30B00B7E72F
:100DE000A086010080841E0000093D0040420F00E3
:100DF0002DE9F84F0025DDF82890984617468A46D9
:100E000004460095FFF72AFF064694F83D00202887
:100E10007AD11923012286492046009601F0BAF9B9
:100E20000028F5D194F83C0001286DD0012084F809
:100E30003C0020680168C90703D1016841F0010145
:100E400001602068016821F400610160222084F8BB
:100E50003D00102084F83E0025646762A4F82A80D3
:100E6000608D20857348E06233464A4651462046ED
:100E700001F0A0F800287CD1208DDFF8BC8120276C
:100E800068B1012814D00228206801681ED041F4FE
:100E9000806101602068416980690090BBE0206842
:100EA000416981690091016841F400710160B2E01B
:100EB0002068016821F48061016072B62068416990
:100EC00081690091016841F400710AE041F4006118
:100ED000016072B62068416981690091016821F45E
:100EE0008061016062B696E0032865D801280CD0C5
:100EF00002284B464FF000024146204600960BD098
:100F000001F048F9A8BB0CE090E032464946204683
:100F100001F0E6F968BB71E001F03CF948BB72B63C
:100F200033E02068016821F48061016072B62068B6
:100F30000069616A0870606A401C6062208D401E12
:100F40002085608D401E60853C4846F2A8110068EF
:100F5000B0FBF1F0C0EBC00000EB80000090401E41
:100F6000009007D020684069C04340070DD5009825
:100F7000F5E727E044F8305F6773A573206940F018
:100F80002000206162B625731CE02068016841F4EE
:100F90000071016020680069616A0870606A401C25
:100FA0006062218D491E2185618D491E618562B671
:100FB00021680969017025E032464946204601F062
:100FC0008FF910B10120BDE8F88F20680069616ACF
:100FD0000870606A401C6062208D401E81B22185CD
:100FE000608D401E608520684269D243520712D44A
:100FF000032903D1016821F4806101602068006940
:10100000616A0870606A401C6062208D401E208505
:10101000608D401E6085208D00287FF465AF84F8C8
:101020003D7084F83E5084F83C50CCE70220CAE77B
:10103000020010000000FFFF040001001400002067
:101040002DE9F84F1F4690468A460446DDF8289061
:10105000FFF704FE054694F83D0020287FD11923B0
:10106000012240492046009501F094F8002876D1ED
:1010700094F83C00012872D0012084F83C002068DC
:101080000168C90703D1016841F0010101602068CE
:10109000016821F400610160212084F83D001020E6
:1010A00084F83E0000262664C4F824806785608D9D
:1010B00020852D48E0622B464A465146204600F0E6
:1010C000EFFF90B9206841698069009036E02A46B8
:1010D0004946204601F03CF950B1206C042804D167
:1010E0002068016841F4007101600120BDE8F88FBB
:1010F000606A216800780861606A401C6062618DE6
:10110000491E6185218D491E89B221852268536956
:10111000DB435B070BD451B100781061606A401C5F
:101120006062608D401E6085208D401E20852A46AD
:101130004946204601F002F80028CED1208D002833
:10114000C5D154F83D0B016841F4007101602020C5
:1011500004F81E09E67766770020C7E7FFE702205C
:10116000C4E70000020010000000FFFF10B586B0C9
:101170000021009101910291039100680F4988427A
:101180001AD10F4CA06940F00800A061A06969461F
:1011900000F008000490C02000901220019003206D
:1011A00003900848FFF760FCE06940F40010E0613C
:1011B000E06900F40010049006B010BD0054004037
:1011C00000100240000C014002488168027811447E
:1011D0008160704708000020074810B5016841F0A1
:1011E00010010160032000F075F80F2000F006F8F0
:1011F00000F024F8002010BD0020024070B50D4D15
:1012000004464FF47A712878B1FBF0F00A49096876
:10121000B1FBF0F000F0A4FB48B9102C07D200227B
:101220002146501E00F036F800206C6070BD012091
:1012300070BD000008000020140000200C4808B514
:10124000816941F001018161816901F00101009131
:10125000C16941F08051C161C06900F080500090C7
:101260000448416821F0E06141F00071416008BD2F
:101270000010024000000140002809DB00F01F02BE
:10128000012191404009800000F1E020C0F80011E8
:1012900070470000F0B40E4B1B680C46C3F30223EA
:1012A000C3F10705042D00D90425191D072901D212
:1012B000002300E0DB1E012606FA05F1491E21404D
:1012C00099409E40761E16403143F0BC01F006BBAB
:1012D0000CED00E0064900F0070208684FF6FF0336
:1012E000184040EA0220034A10430860704700009B
:1012F0000CED00E00000FA0510B501460020234C7B
:10130000012922D0022939D010291DD16168226813
:10131000D20119D51E48C1F38342C903805C0AD5A6
:1013200061681B4AC1F34041921E515C194AB2FBED
:10133000F1F1484301E0184948436168490203D488
:1013400040000321B0FBF1F010BD226AC2F301217D
:10135000012903D1920701D5C80310BD022905D187
:10136000626A920702D549F6404010BD0329FCD1BC
:1013700021688903F9D54FF2244010BD00F02AF905
:101380006168C1F38131491C4900DBE7001002406C
:101390005643000800127A0000093D002DE9F84389
:1013A00005460078354CC00754D0E0690026C000DF
:1013B00008D4E06940F08050E061E069012600F067
:1013C000805000902E480168C90512D401688046FB
:1013D00041F480710160FFF741FC074605E000BF62
:1013E000FFF73CFCC01B642823D8D8F80000C005D8
:1013F000F6D5206A10F4407021D0A98801F440711C
:1014000081421CD0206A1F49012220F440700A60EA
:1014100000220A602062C00711D0FFF71FFC0746B8
:1014200041F2883808E000BFFFF718FCC11B4145B6
:1014300002D90320BDE8F883206A8007F4D5206A2A
:10144000696820F44070084320621EB1E06920F012
:101450008050E0612878800705D56068A96820F48D
:101460004040084360602878C00605D56068E96898
:1014700020F48000084360600020DBE70010024099
:1014800000700040400442422DE9F0470F4605003D
:1014900061D0434E306800F00700B84209D230688E
:1014A00020F0070038433060306800F00700B84291
:1014B00051D128683B4C810712D5400703D560689D
:1014C00040F4E06060602878000703D5606840F46D
:1014D000605060606068A96820F0F00008436060B8
:1014E0002878C00728D06868012810D02168022811
:1014F00010D0890700292EDA616821F00301014329
:101500006160FFF7ABFB804641F288390DE021684E
:101510008903EFE78901EDE7FFF7A0FBA0EB0801E6
:10152000494502D90320BDE8F0876068696800F08A
:101530000C00B0EB810FEFD1306800F00700B8422B
:101540000BD9306820F0070038433060306800F075
:101550000700B84201D00120E5E72878400705D50B
:101560006068E96820F4E06008436060287800075C
:1015700006D56068296920F4605040EAC1006060C7
:1015800000F038F86168084AC1F30311515CC840A3
:101590000649086006480068FFF730FE0020C2E7F1
:1015A00000200240001002406643000814000020A2
:1015B0000C0000200448054900684968044AC1F34A
:1015C0000221515CC8407047140000200010024006
:1015D000764300080448054900684968044AC1F395
:1015E000C221515CC8407047140000200010024026
:1015F000764300080E4A51680E4801F00C03042B94
:1016000011D0082B0FD10C48C1F38343C903C05C30
:101610000AD55168084AC1F34041921E515C054AFF
:101620005043B0FBF1F07047044948437047000055
:101630000010024000127A004443000800093D00F7
:101640002DE9F84F040070D02078C04DC00749D074
:101650006868C0F38100012807D06868C0F3810082
:10166000022809D16868C00306D52868800339D5E7
:1016700060680028E7D035E06068B0F5803F0BD0A7
:1016800010B1B0F5A02F11D0286820F48030286068
:10169000286820F4802002E0286840F48030286028
:1016A000606890B1FFF7DAFA06460AE0286840F46D
:1016B00080202860F0E700BFFFF7D0FA801B642885
:1016C00073D828688003F7D50CE0FFF7C7FA064601
:1016D00005E000BFFFF7C2FA801B6428F0D8286835
:1016E0008003F7D420789A4E80074FF001094FF01D
:1016F000000839D5686810F00C0F07D06868C0F38F
:101700008100022809D16868C00306D428688007D0
:1017100014D52069012808D110E02069B0B1C6F8BD
:101720000090FFF79BFA074605E00AE1FFF796FAFB
:10173000C01B0228C4D828688007F7D528686169CB
:1017400020F0F80040EAC10028600DE0C6F80080F3
:10175000FFF784FA074604E0FFF780FAC01B02286F
:1017600023D828688007F7D4207800072CD579483B
:10177000A169D9B1C0F80090FFF770FA074604E0FC
:10178000FFF76CFAC01B02280FD8686A8007F7D5EC
:1017900071484FF4FA510068B0FBF1F0009000BFBF
:1017A0000098411E0091FAD20EE080E0C0F800805F
:1017B000FFF754FA074604E0FFF750FAC01B02286F
:1017C00075D8686A8007F7D42078400760D5E86943
:1017D0000027C00008D4E86940F08050E861E8695B
:1017E000012700F0805000905C480168C90513D4BF
:1017F0000168834641F480710160FFF72FFA824649
:1018000006E000BFFFF72AFAA0EB0A0064284ED8D2
:10181000DBF80000C005F5D5E06801280AD008B162
:10182000052813D0286A20F001002862286A20F0D9
:10183000040002E0286A40F001002862E06841F2FA
:10184000883B98B1FFF70AFA82460BE0286A40F01D
:1018500004002862EEE700BFFFF700FAA0EB0A01E0
:1018600059455AD8286A8007F6D50CE0FFF7F6F9F3
:10187000824605E0FFF7F2F9A0EB0A0159454CD882
:10188000286A8007F6D41FB1E86920F08050E8612B
:10189000E06988B36968C1F38101022944D0022854
:1018A000C6F8608004D0FFF7D9F9044638E034E088
:1018B000FFF7D4F9074604E0FFF7D0F9C01B022870
:1018C0002BD828688001F7D4206AB0F5803F05D175
:1018D0006868A16820F4003008436860D4E9080112
:1018E0000843696821F4741108436860C6F8609081
:1018F000FFF7B4F9044606E025E000BFFFF7AEF9B4
:10190000001B022809D828688001F7D51BE000BF1A
:10191000FFF7A4F9001B022802D90320BDE8F88FC5
:1019200028688001F4D40EE00128F7D06868226AA4
:1019300000F48031914204D1616A00F47010884251
:1019400001D00120EAE70020E8E700000010024093
:101950000000424280044242140000200070004017
:1019600010B5401EB0F1807F01D3012010BD4FF0B3
:10197000E02460610F21601700F0B0FF0020A0613B
:1019800007202061002010BD70B590F83C20012A8E
:1019900026D0012480F83C40022280F83D200368D4
:1019A0005A689D6822F070060A6832435A600D4BEF
:1019B00002689A4208D0B2F1804F05D00A4B9A4291
:1019C00002D00A4B9A4204D1496825F0800319439A
:1019D000916080F83D40002180F83C10084670BDC1
:1019E000022070BD002C01400004004000080040AF
:1019F00010B5040003D094F83D0010B107E00120B9
:101A000010BD002084F83C00204600F01FF80220A2
:101A100084F83D00211D206800F0D6FD012084F8E7
:101A2000460084F83E0084F83F0084F8400084F8C3
:101A3000410084F8420084F8430084F8440084F8AC
:101A4000450084F83D00002010BD000008B50C4A98
:101A500001680C48914207D1816941F400618161BC
:101A6000806900F4006009E0074A914207D1C1692A
:101A700041F00401C161C06900F00400009008BD9C
:101A8000002C0140001002400008004090F83D107A
:101A9000012901D001207047022180F83D10006823
:101AA0000B49884208D0B0F1804F05D009498842DF
:101AB00002D00949884204D1816801F00701062952
:101AC00003D0016841F0010101600020704700006F
:101AD000002C0140000400400008004001680A6A30
:101AE00041F211131A4207D10A6A9B101A4203D11C
:101AF0000A6822F001020A60012180F83D100020EE
:101B0000704770B5044690F83C000025012817D0B6
:101B1000012684F83C60022084F83D002068826839
:101B200022F0770222F47F4282600868502838D081
:101B30000DDC20284FD005DC90B3102811D14AE0ED
:101B4000022070BD302846D040280AD13BE06028F2
:101B50002FD070280DD0B0F5805F03D0B0F5005FB6
:101B600012D0012584F83D60002084F83C0028460E
:101B700070BDCB68D1E90121206800F05BFD2068D1
:101B8000816841F0770109E0CB68D1E90121206843
:101B900000F050FD2068816841F480418160E1E7F8
:101BA00019E0CA684968206800F056FD5021206895
:101BB00006E0CA684968206800F05FFD602120687F
:101BC00000F042FDCEE7CA684968206800F044FD95
:101BD00040212068F4E7226801461046F0E770478C
:101BE00070470000F8B5016804460868CA684B6988
:101BF00010F00F0F4FF0000559D003F0010602F46A
:101C00009077374365D0C10705D0D10503D5616C06
:101C100041F001016164410705D5D90703D0616C2A
:101C200041F002016164810705D5D90703D0616CD9
:101C300041F004016164010707D502F0200131433E
:101C400003D0616C41F008016164616C00293AD0F5
:101C5000800604D5900602D5204600F04FFD20688E
:101C60004069616CC0F38010090700D460B320465E
:101C700000F01DFD20684069400621D52068143021
:101C800050E8001F21F0400140E80012002AF5D181
:101C9000E06BA8B16D494163E06BFEF787FE002859
:101CA00011D0E06B416B01B0BDE8F04008478306FE
:101CB0000FD593060DD52046BDE8F84000F01EBDB7
:101CC0002046FFF78DFFF8BD2046FFF789FF6564CA
:101CD000F8BD266B2023012E7CD1C6067AD5D60608
:101CE00078D508684868009048694FF002064006B9
:101CF00040D5E16B086840680004000CE8D0A28D74
:101D00008242E5D9E085886920282DD020680C30F2
:101D100050E8001F21F4807140E80012002AF5D13C
:101D20002068143050E8001F21F0010140E8001243
:101D3000002AF5D12068143050E8001F21F040013E
:101D400040E80012002AF5D184F84230256320686B
:101D50000C3050E8001F21F0100140E80012002A6A
:101D6000F5D1E06BFEF7FEFD6663A08DE18D401AB4
:101D700081B22AE0A08DE18D401A81B2E08D002869
:101D8000A6D00029A4D022680C3252E8000F20F41B
:101D9000907042E80007002FF5D12068143050E819
:101DA000002F22F0010240E80027002FF5D184F82F
:101DB0004230256320680C3050E8002F22F01002DA
:101DC00040E80023002BF5D166632046FFF707FFAC
:101DD000F8BDFFE705062BD5150629D594F8410077
:101DE0002128F5D1A068B0F5805F01D12069B0B19C
:101DF000206A411C2162216800784860E08C401E06
:101E00000004000CE084E3D12068C16821F0800167
:101E1000C1602068C16841F04001C160D8E7206A14
:101E20000088C0F308004860206A801C2062E5E753
:101E30004006CDD55006CBD5CA68204622F04002D8
:101E4000CA6084F8413000F09BF8C1E79F26000883
:101E500070B5040004D094F84100002510B106E0EC
:101E6000012070BD84F84050204600F023F8242063
:101E700084F841002068C16821F40051C160204607
:101E800000F09EFC2068016921F490410161206806
:101E9000416921F02A0141612068C16841F4005183
:101EA000C1606564202084F8410084F842006563C5
:101EB000002070BD30B585B00024009401940294D8
:101EC00003940068184988422CD11848816941F46C
:101ED00080418161816901F480410491816941F00F
:101EE000040181618069124D00F0040004904FF4F8
:101EF000007000900220019003200390694628465C
:101F0000FEF7B2FD2815CDE9000469462846029483
:101F1000FEF7AAFD002201212520FFF7BBF92520AD
:101F2000FFF7AAF905B030BD0038014000100240AB
:101F30000008014090F84230202B01D00220704769
:101F400021B11AB10023036300F096BC0120704751
:101F500010B509490068096888420BD107488078A4
:101F600000F0C6FF05490122BDE81040891C024867
:101F7000FFF7E0BF10BD000050010020000000206E
:101F80007047FEE701684A69D24352050FD46FF4E7
:101F900080624A61002140F8301F20224273817321
:101FA000026942F0040202610173012070470020BF
:101FB000704700002DE9F84F0446C06A1E4693465C
:101FC0000D4621680A6842F480620A60082807D03A
:101FD000012805D010F5803F02D0206B112804D1D4
:101FE0002068016841F4807101604FF001195B467F
:101FF000002249462046009600F0CCF84FF40078C5
:1020000040B120680068C00501D5C4F840800320B5
:10201000BDE8F88F2069DFF884A0B0F5804F0FD0BD
:102020000620216800EAD51747F0F0000861334622
:102030005A460AF10601204600F0F4F858BB03E0C6
:10204000E8B240F001001CE02168E8B208613346C4
:102050005A465146204600F0E5F8E0B9206841694B
:1020600081690091016841F4807101605B46002242
:1020700049462046009600F08DF80028C1D147F06F
:10208000F1002168086133465A465146204600F067
:10209000C9F80028BCD00120BAE700000200010006
:1020A000F8B50446C06A1E460D461746082807D0F4
:1020B000012805D010F5803F02D0206B122804D1F2
:1020C0002068016841F480710160134600224FF0DE
:1020D00001112046009600F05DF840B120680068CC
:1020E000C00502D54FF4007020640320F8BD2069BC
:1020F000B0F5804F0ED00620216800EAD51040F0E0
:10210000F000086133463A460B49204600F08AF851
:1021100078B902E005F0FE0000E0E8B2216808614D
:10212000054933463A46891F204600F07BF80028CF
:10213000DCD00120F8BD00000800010070B5164693
:102140000D4604461EE02046FFF71CFF08B10120A3
:1021500070BD681C16D0FEF781FD801BA84200D818
:1021600085B920684069C04340070BD5002044F87A
:10217000300F20216173A073216941F0200121619A
:102180002073E4E720684069C0434007DBD40020A7
:1021900070BD00002DE9F047984617460D460446ED
:1021A000C1F30746DDF820902AE000BFB8F1FF3FF9
:1021B00026D0FEF753FDA0EB0901414502D8B8F146
:1021C000000F1DD12068012E16D0806925EA00007D
:1021D0000004000C12D00020B84211D1002044F8B5
:1021E000300F20216173A073216941F0200121612A
:1021F00020730120BDE8F0874069E7E70120EBE7A5
:102200002068012E0AD0806925EA00000004000C35
:1022100006D00020B842C9D00020EBE74069F3E7C0
:102220000120F7E72DE9F047984616460D4604468B
:102230004FF000094FF0200AC1F3074723E0206860
:102240004069C043400515D42068016841F400711D
:10225000016021686FF480604861C4F8309084F8B0
:102260003DA084F83E90216C41F00401216484F883
:102270003C9021E0701C06D0FEF7F0FCA0EB0800BB
:10228000B04203D816B1012F1FD021E02068012FE2
:1022900015D0806925EA00000004000C18D000BFAA
:1022A00044F8309F84F80DA084F80E90216941F025
:1022B0002001216184F80C900120BDE8F08740697D
:1022C00025EA00000004000CEAD12068406901E022
:1022D0002068806925EA00000004000CAFD1ECE71B
:1022E0002DE9F041002590460E460446202728E0BF
:1022F0004069C043C0060CD454F8301B6FF0100086
:10230000486144F810596777A577206A20622577DD
:1023100014E0FEF7A3FCA0EB0800B04200D886B999
:1023200020684069C04340060BD544F8305F6773AE
:10233000A573206940F02000206125730120BDE8CD
:10234000F08120684169C9434906D1D40020F6E7ED
:1023500070B516460D4604461EE02046FFF712FEF5
:1023600008B1012070BD681C16D0FEF777FC801BF9
:10237000A84200D885B920684069C04300060BD543
:10238000002044F8300F20216173A073216941F0CF
:10239000200121612073E4E720684069C043000602
:1023A000DBD4002070BD0279017A007B8B1A002BF0
:1023B00002DD1144401A00E0501AC0B2704700001C
:1023C0003EB500250D480095019502950A498560A6
:1023D000016005730575012445604FF460210461B7
:1023E000C161FEF7EDF8009469460448CDE9014566
:1023F000FEF764F83EBD0000002401403C000020D0
:1024000070B586B00024204800940194029403948F
:10241000816941F010018161816901F0100104912D
:10242000816941F020018161816901F020010491FD
:10243000816941F004018161816901F00401049125
:10244000816941F0080181618069104E00F0080047
:102450004FF400550490002229463046FEF7F9FB60
:1024600001200095CDE90104022003906946304621
:10247000FEF7FAFA0920CDE90004694604480294FF
:10248000FEF7F2FA06B070BD0010024000100140E5
:102490000008014010B586B0002412480094019451
:1024A0000294039404940E49059401604721C0E905
:1024B00001144FF6FE71C0E9031444618461FFF713
:1024C00097FA4FF48050009069460648FFF719FBD1
:1024D000049404A903480594FFF756FA06B010BD0A
:1024E000002C0140C000002010B586B00024124826
:1024F000009401940294039404940E49059401609D
:102500004721C0E901144FF6FF71C0E9031484614B
:10251000FFF76EFA4FF48050009069460648FFF7C7
:10252000F0FA049404A904480594FFF72DFA06B0C4
:1025300010BD00000008004008010020FEE7FEE793
:1025400070477047044B18600448C1608160416067
:1025500001605A607047000034000020600A0020CB
:10256000FEF732BE30B593B028216846FDF75EFE17
:1025700014210AA8FDF75AFE002401200F9410949C
:102580001194010412948DE8130004904FF4E010AC
:10259000CDE90810022507956846FFF751F80F208E
:1025A000CDE90A056802CDE90C4002210AA80E9483
:1025B000FEF76AFFA80311900F950FA8FEF7EEFE35
:1025C00013B030BD70470000F0B50268164B174CD1
:1025D000174D4FF08047984205D0B84203D0A04233
:1025E00001D0A84203D122F070064A6832439842D3
:1025F00005D0B84203D0A04201D0A84203D122F4B2
:102600004074CA6822434C6922F08002224302606F
:102610008A68C2620A688262984201D109690163CC
:1026200001214161F0BD0000002C01400004004088
:102630000008004010B5846842EA032224F47F4475
:102640000A432243826010BD826822F070020A436E
:1026500042F007018160704710B5036A046A24F0F4
:1026600001040462846924F0F00444EA021423F0B3
:102670000A020A438461026210BD10B5036A046A4B
:1026800024F010040462846923F0A00324F470444D
:1026900044EA023243EA01118261016210BD10B5C1
:1026A000406A0021C185C184FFF79AFA10BD016814
:1026B0000C3151E8002F22F4907241E80023002BE6
:1026C000F5D10168143151E8002F22F0010241E8F0
:1026D0000023002BF5D1016B012909D101680C31D0
:1026E00051E8002F22F0100241E80023002BF5D121
:1026F000202180F8421000210163704708B590F84E
:102700004210222901D0022008BD82684FF4805374
:102710009A4201D1016921B1816A9A421BD04AB122
:102720000AE00268816A5268C2F308020A80816A7C
:10273000891C08E0026972B10268526802F07F02E7
:102740000A70816A491C8162C18D491E0904090C05
:10275000C18503D01BE002685268F1E70168CA68CE
:1027600022F02002CA600168CA6822F48072CA603E
:1027700001684A6922F001024A61202180F8421072
:1027800000214163026B012A03D0FFF7E1FB002027
:1027900008BD016301680C3151E8002F22F01002DE
:1027A00041E80023002BF5D101680A68D20602D562
:1027B0000A6849680091818DFFF711FAE7E7000088
:1027C00070B5044600680169E26821F44051114384
:1027D00001612169A0680843616908432168CA68EA
:1027E00041F20C639A430243CA6020684169A269BE
:1027F00021F44071114341611E492068884202D191
:10280000FEF7E8FE01E0FEF7D5FE00EBC00101EBAC
:102810000012606864218000B2FBF0F3B3FBF1F3B7
:102820006FF018067343B2FBF0F5B2FBF0F605EB60
:102830008305322303EB0515B5FBF1F5B6FBF1F685
:1028400005F0F00505EB0615B2FBF0F6B2FBF0F073
:10285000B0FBF1F06FF01802504306EB800003EB81
:102860000010B0FBF1F0216800F00F0028448860F0
:1028700070BD00000038014081628285C285002160
:102880004164222180F84210016921B10168CA68BF
:1028900042F48072CA6001684A6942F001024A61EA
:1028A0000068C16841F02001C1600020704700004D
:1028B0000148FFF797B9000050010020FEE70FB470
:1028C000282210B5044602C004A9FDF77DFC0E982D
:1028D000E0620F98206310BC5DF814FB0907090E35
:1028E000002804DB00F1E02080F80014704700F0BD
:1028F0000F0000F1E02080F8141D704710B5026849
:10290000074C4A4000210260134602F00102524285
:10291000224082EA5302491C02600829F4D310BD08
:102920002083B8ED70B50446001DFDF7A1FF4FF4FC
:102930007A71201DFDF7FEFE201DFDF73DFE01F022
:10294000A1FB0546201DFDF7F3FF0649284601F0CF
:1029500083FC054901F0B4FABDE87040034901F079
:1029600071BC0000008089440000A0410000C84202
:102970000260816083807047FEF72EFCFFF7F2FD56
:10298000FFF73EFDFFF786FDFFF7AEFDFFF718FDF1
:1029900026482549002401604FF41651C0E901146E
:1029A0000C21C460C0E904418461C461FFF750FA9E
:1029B0001E481F49E43801601E49C0E901144FF464
:1029C0008041C0E9034144618461C4610462FEF74F
:1029D0004BF9012218491548FFF7ACFA00F04CFCFE
:1029E00012489038FDF762FD13491048891C4830A1
:1029F00000F072FB0D4E104D143EAD1E00F05CFC5D
:102A0000287848B10948483000F05CFB06F15C00CA
:102A100007C800F06DFC2C7068780028EED000F03C
:102A20005DFC6C70EAE700000038014050010020B6
:102A300000540040A086010002000020012808D1B7
:102A400008780121034A112800D11170002800D113
:102A50005170704700000020002280F8F82180F8B3
:102A6000F92180F80012C0F8D020C0F8D420C0F8B6
:102A7000CC20C0F8D820A0F8DE2080F8E32000F0B9
:102A8000C1BB00002DE9F04716460F46044600255D
:102A900004E0795D204600F05FFA6D1CB542F8D382
:102AA00000F09DF83F494FF47A730860D4F8C420D1
:102AB000821A9A4201D2012200E00022D4F8C850C2
:102AC0008A46411B994201D2012100E0002189463A
:102AD00094F8E73094F8E6105B1AD9B2102921D2A5
:102AE00094F8E2508D421DD994F8E400084400F0B7
:102AF0000F0000EB400004EB800594F8000200F0AA
:102B00007CF8A9790B3188423BD394F8E70028720E
:102B10002946204600F092FB94F8E700401C84F818
:102B2000E7002EE069B362B394F8E420DFB202EB71
:102B3000420104EB81052968461A00210FE000BF1D
:102B400002EB420C54F82C30C31AB34202D91E4691
:102B500004EB8C05521C491C02F00F02C9B2B942A9
:102B6000EED32968401A32280BD394F8000200F003
:102B700044F8A9790B31884203D32946204600F056
:102B80005DFBD4F8C010DAF80000401A192807D904
:102B9000B9F1000F04D02046BDE8F04700F076BA46
:102BA000BDE8F0872C000020FEB506461C461746FF
:102BB0000D4690F8000200F020F804F10B01884265
:102BC0000CD34FF6FF700021CDE90010029405F000
:102BD0003F013B460022304600F014F8FEBDFEF7F0
:102BE0003DB8000003480160001F01684906FCD59C
:102BF000704700000438014070474FF40070704780
:102C0000704700002DE9F0470446DDE909950220F0
:102C1000089E84F8FF01C01EC4F8F40194F8000275
:102C2000984692460F4604F5FA74FFF7E9FF207BB9
:102C3000AA21FFF7D7FF207BAA21FFF7D3FF207B34
:102C4000AA21A4F5FA74FFF7CDFF012239462046E8
:102C500000F0B6FA380604D501225146204600F0AD
:102C6000AFFA01222946204600F0AAFA0CE000BF84
:102C700018F806100122204600F0A2FA761CB6B21F
:102C80006D1E06EA0906EDB2002DF1D1D4F8F4016B
:102C90000022C543290E204600F092FA0022C5F317
:102CA0000741204600F08CFA0022C5F30721204698
:102CB00000F086FAE9B20022204600F081FA94F88A
:102CC00000025521FFF78EFF94F80002BDE8F0479F
:102CD000FFF792BF2DE9F04F0446002095B005465E
:102CE00006460746804614900121204600F050FA1F
:102CF000A18800222068FDF7ACFF1220FDF7A2FE9C
:102D000072B6A068FEF7C2FE0021204600F040FA2D
:102D1000A1684FF000090968C1F824904FF4FA7BCC
:102D200005E0A0680068406A80B2584540D8A18894
:102D30002068FDF789FF0128F3D0A1680968C1F870
:102D4000249003E0406A80B2584531D8A1882068B9
:102D5000FDF77AFF0028A0680068F3D0416AC0F848
:102D6000249002E080B2584522D8A1882068FDF75F
:102D70006BFF0128A0680068406AF3D04FF0000A9A
:102D8000A1680968C1F8249005E0A0680068406A5D
:102D900080B258450CD8A1882068FDF755FF00285F
:102DA000F3D0A1680968C1F8249006E0584504D919
:102DB00062B6002015B0BDE8F08FA1882068FDF74D
:102DC00043FF0128A0680068406A80B2EED0014647
:102DD0001538092801D2002003E03D39132901D21A
:102DE0000120149014992DF81A100AF1010ABAF171
:102DF000280FC5DBA068FEF771FE62B600226846A8
:102E00004FF6FF7130F81230521C2B449BB201EA8E
:102E10004305082AF6DB082230F81230521C3B44E6
:102E20009BB201EA4307102AF6DB102230F8123079
:102E3000521C33449BB201EA4306182AF6DB1822DF
:102E400030F812C0521C0CEB08039BB201EA430895
:102E5000202AF5DB05EBC50000EB051007EB800031
:102E600082B206EBC60000EB061108EB810081B2CE
:102E70002020401C2828FCDB50084908A181E08163
:102E8000012097E770B504461748FFF723FF164D5A
:102E9000E88901F0F7F8002100F068FA01F0D2F8B3
:102EA0006080A88901F0EEF8012100F05FFA01F0DE
:102EB000C9F8208005F11000FFF734FD022100F071
:102EC00055FA0A4D294601F0F1F801F0BBF8A0804F
:102ED000FDF7BCFA032100F049FA294601F0E6F8B3
:102EE00001F0B0F8A06070BD080600200000C842E4
:102EF0000146014800F01CB8F805002001600021DF
:102F00004160C0E90212704710B5D0E901239A422E
:102F100002D14FF0FF3010BD5A1CC46892B29442E7
:102F200000DC00220468E35C0B708260002010BDAE
:102F300010B54368C4685A1C92B2944200DC002267
:102F40008468944202D14FF0FF3010BD0468E15410
:102F50004260002010BD00002DE9F041044690F8C9
:102F6000F80100260D46022814D0AA2D1BD084F8A3
:102F7000F86100BF94F8F91103274FF0050804F534
:102F8000F8720A297ED2DFE801F027122930405575
:102F90005A626C7884F8F861AA2D02D055291BD0AA
:102FA00070E001205AE0401C84F8F801E2E784F860
:102FB000FB5184F8FA614FF0FF30C4F8F001294664
:102FC0001046FFF79BFC280601D5022046E084F856
:102FD000FC6100BF84F8F971BDE8F08184F8FC5110
:102FE00029461046FFF78AFCF4E784F8FD5184F87F
:102FF000FE5129461046FFF781FC94F8FD0108B107
:1030000004202BE084F8F981E6E794F8FA0104F152
:10301000EC03411C84F8FA11C55429461046FFF709
:103020006DFC94F8FD01401E10F0FF0084F8FD01D6
:10303000E8D0D1E72806C4F8EC0106200EE0D4F869
:10304000EC0140EA0540C4F8EC01072006E0D4F8A2
:10305000EC0140EA0520C4F8EC01082084F8F901ED
:10306000BAE7D4F8EC012843C4F8EC01D4F8F01125
:10307000C943884206D10920F0E7552D02D12046E8
:1030800000F0D6F984F8F961A6E700003EB50446E1
:1030900090F80002FFF7B1FD0B280FD30122FF21AA
:1030A00000208DE8070094F8E82004F1E8032046AA
:1030B000FFF7A8FD02480068C4F8C0003EBD00004C
:1030C0002C00002070B5054600242846FFF7DAFEE4
:1030D000641C192CF9DD70BDF0B507461F480E467B
:1030E00097B01D4A0146FFF72DFA28221C490AA86D
:1030F000FDF76AF81A48816A1491C06A159028226F
:103100000CA96846FDF760F8DDE90A23012115489E
:10311000FFF7D5FBFDF76EF912480123124A134958
:103120001038FFF725FCFDF799FD054600243846C9
:10313000FFF7A8FE641C282CF9DDFDF78FFD401B6E
:1031400000F028FC0A4A0B4B00F038FC00F0F0F9C4
:10315000306017B0F0BD00000AD7233C00004843A0
:103160003C0000201806002000080140C00000209C
:1031700094F6065F984C553F0870000A48707047F7
:103180000870020ACA70020C8A70000E48707047FC
:103190001FB500220092019202920392032201299C
:1031A00009D0002906D18188009103920068694600
:1031B000FDF75AFC1FBD8188009101210191F4E7C0
:1031C00070B5044616460D4690F80002FFF70AFD5A
:1031D00026B1294604F5FA70FFF790FB0226AA2DC6
:1031E0000CD194F8FF01401E10F0FF0084F8FF019D
:1031F00006D194F800025521FFF7F4FC84F8FF6132
:1032000070BD0000002180F8E21080F8E41080F822
:10321000E510A0F8DC10A0F8E01080F8E710064AEE
:1032200080F8E61080F8E8101268C0F8C420C0F8F2
:10323000C020C0F8C81070472C0000203EB50C46D6
:103240008B79898840F2FF328DE80E00E179227A8D
:1032500041F08001034BFFF7D5FC03480068206074
:103260003EBD00004C0600202C0000200148FFF766
:103270009AB80000F8050020084910B5402201F274
:103280005440FFF73BFE054801214C30FFF7E4FBBB
:10329000BDE8104002210248FFF7DEBBA401002078
:1032A000F403002008B569460248FFF72DFE9DF89B
:1032B000000008BDF805002038B50024FFF7D6FF50
:1032C00020B1FFF7EFFF8DF8000001242246694688
:1032D0000148FFF7D7FB38BDF00100200123024A67
:1032E00019460248FFF760BC18000020F0010020DA
:1032F00010B503460C4680B21A49FFF73DFF194945
:10330000180C091DFFF738FF1649A0B20831FFF766
:1033100033FF144910460C31FFF732FF11491248B0
:103320000A234A780270097841700E49091D4A78CB
:1033300082700978C1700B4908314A7802710978A6
:10334000417108490C314A7882718A78C271CA7811
:1033500002720978417202460121BDE810400C302A
:10336000FFF722BC1A000020E40100202DE9F05FE5
:1033700005462C480C462C4E50F8240083463168F4
:1033800000F03CFD0146584600F09AFD2549824672
:10339000303141F82400A1F1100050F8240080469B
:1033A0000146284600F058FF514600F07FFE414696
:1033B00000F024FD1B490546103141F824007068D7
:1033C00000F0F0FC07460E462946404600F044FF58
:1033D00020F0004000F0E6FC3A46334600F0EEFAFA
:1033E00080468946584600F0DDFC07460E465046AA
:1033F00000F0D8FC00220D4B00F0DEFB3A463346CD
:1034000000F0DCFA42464B4600F0C4F800F090F8B9
:10341000044941F824002031284641F82450BDE8F1
:10342000F09F0000600A0020340000200000F03F00
:103430002DE9F0413D4990F8FB51044600F1EC06BE
:1034400090F8FE7190F8FC010968C4F8C410FE2DD4
:103450005DD0FF2D17D02A060BD5C4F8C81094F8FC
:10346000E81081425DD1491C84F8E8102046FFF73E
:103470000DFE94F8003205F03F003A463146BDE8B3
:10348000F041FFF7DBBA337894F8E6101B1ADDB28F
:10349000421A94F8E730D2B2591AC9B28A4233D8E4
:1034A00084F8E600002019E094F8E41001EB4101F3
:1034B00004EB810394F8E210491E84F8E21094F8BA
:1034C000E410491C01F00F0184F8E410B4F8DC109A
:1034D0009B79C91A401CA4F8DC10C0B29042E3D317
:1034E00094F8E46000270BE006EB460004EB800153
:1034F0002046FFF7A3FE761C7F1C06F00F06FFB2E6
:10350000AF42F1D3BDE8F08154F8D00F0BE0D4F80E
:10351000D800401CC4F8D8002046BDE8F041FFF7B1
:1035200071BE54F8D40F401C2060EBE72C00002043
:1035300021F00042A2F16052B2F5801F01F0004379
:1035400028BFD2F17F6C0BD95FEA001C43EAC202AC
:1035500042EB507018BF704728BF20F00100704741
:10356000B2F5801FBCBF184670474FEA410C1CF5EE
:10357000001F02D2084600F060BE70B500F0C8FA25
:1035800000000089FFF7F6BF4FF00040A0F5800073
:103590007047000010B591EA030F48BF83F0004365
:1035A00000F11E83841A71EB030C05D2121943EB50
:1035B0000C03001B61EB0C01DFF824E14FEA11540E
:1035C000A4EB135C1EEA430F18BF9EEA445F73D05E
:1035D00023EA0E03DCF1200E21EA045143F48013A8
:1035E00032D322FA0CFE10EB0E0023FA0CFE41EB54
:1035F0000E01CCF1200E03FA0EFE10EB0E0051F17D
:103600000001B1F5801FCCF1200E32D201EB045144
:1036100012FA0EF2BDE8104058BF7047401C38BF88
:103620005FEA420218BF7047002814BF20F0010073
:1036300041F100014FEA410313F5001F38BF704705
:10364000A1F1C04100F0B2BA012A43EB0302ACF190
:10365000200CDCF11F0E32BF4FF0000E23FA0CF3EA
:1036600010EB030041EB0451B4EB115FD0D0A1EBA0
:10367000045101F5801149085FEA300001EB045163
:103680000ED350F1000038BF12FA0EFE08D1BDE88B
:103690001040C9E7401C38BF5FEA4202CAD1C3E705
:1036A000BDE810404FEA410313F5001F38BF7047D3
:1036B000A1F1C04100F07ABA9EEA445F08D011EA55
:1036C0005E0FBDE8104004BF01F0004100207047CC
:1036D000BDE8104070B500F01BFA00BF64FBBE3EB1
:1036E0000000E0FF2DE9C04130B4DFF8A0C23CEAA1
:1036F000111418BF3CEA131400F0EC8081EA0305B2
:103700001CEA111444EAD57418BF1CEA131500F022
:10371000C780A4EB05044FF0004545EAC12145EA06
:10372000C32341EA505143EA525304F17F74994252
:1037300004F500344FEAC0204FEAC22208BF90428D
:1037400000F09C804FEA13650FF24016765D4FEA59
:10375000134506FB05F7C7F1807706FB07F74FEA2D
:10376000D737A7FB03687642C8F58038A7FB06CE9B
:1037700038BFA8F1010807FB08E64FF0000EA6FBD2
:10378000028CE6FB03CEDCF1000CCEF1004E38BF1C
:10379000AEF1010EA6FB0C584FF000074FF00005EC
:1037A000E6FB0E87A1FB08C6A0FB07CE16EB0E06B4
:1037B00045F10005E1FB076515F1E04E7EBFA4F57C
:1037C00080345FEA46066D4116F1800745F1000539
:1037D0004FEA17274FEA066647EA0567A6F1DE4675
:1037E000B6F1805F4FEA15251FD9384624F0010C49
:1037F00005EBC471BCF1FE6F01EB0C1102D8F0BCFB
:10380000BDE8008124425CBF01F5801E9EEAC47FB2
:1038100002D4F0BCBDE80081244238D4F0BCA1F150
:10382000C041BDE8004100F0C1B94FEAD22242EAEE
:1038300043524FEAD323A7FB02864FEAD02040EA47
:10384000415007FB03661EEA0E0F4FEAD12105FB2C
:10385000026658BFA6EB0056B6EB00564FEA520E72
:103860004EEAC37E18EB0E0E56EB530EBDD518EB89
:1038700002085E417F1C55F10005B6E74FF4801544
:103880004FF000074FF000064FF00008ADE7F0BC26
:103890004FF0000001F1C04101F00041BDE800819E
:1038A00011EA0C1F0CEA131500D00CE013EA0C1FF0
:1038B00000F025804FF00000F0BC81EA030101F028
:1038C0000041BDE80081F0BCBDE8004181EA030190
:1038D00000F06CB9F0BCBDE8004170B500F018F91B
:1038E000097EFC3E00F007B881EA03014FF00000BA
:1038F00001F00041704781EA030100F057B9F0BCC4
:10390000BDE800414FF0000021497047FFFDFBF981
:10391000F7F5F4F2F0EEEDEBE9E8E6E4E3E1E0DE02
:10392000DDDBDAD8D7D5D4D3D1D0CFCDCCCBCAC874
:10393000C7C6C5C4C2C1C0BFBEBDBCBBBAB9B8B79B
:10394000B6B5B4B3B2B1B0AFAEADACABAAA9A8A88E
:10395000A7A6A5A4A3A3A2A1A09F9F9E9D9C9C9B5C
:103960009A99999897979695959493939291919007
:103970008F8F8E8E8D8C8C8B8B8A89898888878798
:103980008685858484838382828181800000FF070D
:103990000000F87FB0FA80F310FA03F10AD0C3F107
:1039A0001D0303F580634FEA41504FEA035202EBD7
:1039B000D12170474FF0000070470000DFF848C188
:1039C00070B51CEA111E1EBF1CEA13159EEA0C0FEF
:1039D00095EA0C0F00F06F8081EA030423EA4C1390
:1039E0004EEAD47E21EA4C1141F4801143F4801355
:1039F000AE44A1FB024CA0FB0365AEF17F7E3619FD
:103A000055EB0C05A1FB034C4CF10003A0FB021C81
:103A100016EB0C06654153F10003094218BF46F04E
:103A2000010613F4007F0BD14FEA03314FEA053052
:103A3000340341EA155140EA16506FF003020AE0E0
:103A40004FEAC3214FEAC520F40241EA555140EA4A
:103A500056506FF0020202EB2E4201EB025585EA4E
:103A6000CE710AD05FEA440C18BF24F0004450F134
:103A7000000041F1000120EAD47040F2FE7C624572
:103A800000D270BDA84214BF4FF080444FF04044B4
:103A9000002E08BF0024BEF1806FA8BFA1F1C04175
:103AA000BDE8704080F282804FF0000001F1C0411B
:103AB00001F0004170479EEA0C0F0CEA131518BF85
:103AC00095EA0C0F06D04FF0000081EA030E0EF0CD
:103AD000004170BD00F01CF88900013E00F007B8FD
:103AE00000F009B84FEA430C5FEA5C5C08D081EA59
:103AF000030100F05BB84FEA410C5FEA5C5CF6D171
:103B00004FF00000014970470000FF070000F87FF8
:103B10000EF1020E2EF0030E5EF8046B364205D451
:103B2000012A43EB030515F5001F12D8012841EBCC
:103B3000010C1CF5001F0CD80ED14FEAD17C15F5F5
:103B4000001F0CEB4C0C0CF1020C08BF4CEBD37CAF
:103B500004E04FF0080C01E04FEAD37C0CEB4C057D
:103B600026FA05F606F00706B6F1040C06D20EEBAF
:103B7000860CBDE870404CF0010C6047DFE80CF0AB
:103B8000090B02024FF000414FF00000A1F50021A7
:103B900070BD19461046012851EB010418BFD4F539
:103BA000001484BF002001F0004170BD0808A0F59A
:103BB00000114FEA3101704791EA030F10B581F00F
:103BC00000413FF5EFAC83F0004300F009B800007E
:103BD00010B591EA030F48BF83F000433FF5E2AC14
:103BE000841A71EB030C07D212198CF0004C43EBD2
:103BF0000C03001B61EB0C01DFF8A4E14FEA115448
:103C0000A4EB135C1EEA430F18BF9EEA445F00F06A
:103C1000B08023EA6E03524221EA0451C3EB6E03E3
:103C200038BF5B1EDCF1200E25D322FA0CFE10EB10
:103C30000E0043FA0CFE41EB0E01CCF1200E03FA0C
:103C40000EFE10EB0E0051F10001CCF1200E29D434
:103C500012FA0EF201EB0451BDE8104058BF704754
:103C6000401C1CBFB2F1004F704700280CBF491C1C
:103C700020F00100704712EB020E43EB030218BF65
:103C80004FF0010E4EEA4202ACF1200CDCF11E0EA8
:103C900054D943FA0CFE10EB0E0051F1FF31CCF178
:103CA0001E0ED5D50EF1010E12FA0EFE404141EB6B
:103CB000010101EB445C5FEA5C5C10D910EBDE7043
:103CC00001EB045138BFBEF1004FBDE8104018BFF2
:103CD000704700280CBF491C20F00100704730D20B
:103CE0004FEAD42C11F5001124F400641BD0B1FA72
:103CF00081F20B3AA41AA41ED2F12003914030FAAB
:103D000003F31943904001EBCC71002C01EB0451FB
:103D1000BDE81040A8BF704701F1C0414FF000005E
:103D200001F000417047B0FA80F310FA03F100D1BE
:103D300010BDE41A173C4805C90AE4E701EB045139
:103D400010BD491001EB0451BDE810404FEA3000AE
:103D500002E04FF0000170474A0008BF0042F8D06F
:103D6000B2F5001F28BF704701F000414FF000007E
:103D700070479EEA445F07D011EA5E0FBDE810402D
:103D800004BF002100207047BDE8104070B5FFF768
:103D9000BFFE00BF40DFF63E83F000411046704793
:103DA0000000E0FF43004FEAD30C4FEA3C0C4340D5
:103DB0001FBF40070CF1605113F0FE4F70471CF01D
:103DC000006F03D100200CF0004170470CF000435D
:103DD00043EA507010B540EACC0000F0E8F900BFAB
:103DE000000000924FEA0001FFF7E0BE4FF00041F3
:103DF0004FF00000A1F500217047000090EA010F8C
:103E000048BF81F0004100F12E82421A3CBF801A67
:103E100089184FEAD0524FF07F4C1CEA410FA2EBB9
:103E2000D15318BF9CEA026F00F03B804FF0004C6A
:103E30004CEA00204CEA012121FA03FC10EB0C0CA7
:103E40001ED202F1FF325FEA1C2040EBC25038BFA5
:103E500070471CF07F0F4FEA400C18BFBCF17F4F3A
:103E600038BF7047C3F12003994008BF20F001001C
:103E7000BCF17F4F38BF7047A0F1C04000F0DDB902
:103E80004FEA3C00000A40EBC25028BF1CF0FF0F75
:103E90004FEA400CE6D018BFBCF17F4F38BF7047E7
:103EA000EAE79CEA026F05D010EA5C0F08BF00F059
:103EB0000040704710B500F07AF900BF64FBBE3EC9
:103EC0004FF47F0C1CEAD0121EBF1CEAD11392EAF9
:103ED0000C0F93EA0C0F00F0858090EA010F48BFA9
:103EE00042F4807240F4000C41F400002CF07F4159
:103EF00020F07F4000B58142A2EB03020FF2081CC4
:103F0000ACEB504EC0F100009EF800E04FEA4E0EC0
:103F100000FB0EFC38BF49004FEA2C1C02F5FA02E8
:103F20000CFB0EF34FEACE1E4FEA112C4FEAC121D3
:103F30000EEB635E42EB22420EFB0CFC4FEA1C537D
:103F400000FB03114FEA112C4FEA01310EFB0CFC70
:103F50004FEADC4C00FB0C11C14228BF09184CEBA6
:103F600003335DF804EB10EB410143EBC250B2F5B3
:103F70007C0F38BF704729D512F0F00F1CBF00F13D
:103F8000C04000F0004070470081828384858687AE
:103F900088898B8C8D8E8F919293959697999A9C08
:103FA0009D9FA0A2A3A5A7A8AAACAEB0B2B3B5B777
:103FB000B9BCBEC0C2C5C7C9CCCED1D4D7D9DCDF4D
:103FC000E2E6E9ECF0F3F7FAFE0000004FEA400CFD
:103FD0000CF1807CBCF17E4F28BF7047B0F1C0402F
:103FE00000F02BB990EA010F0CEAD11348BF42F45C
:103FF0008072624538BF634507D213F47F0F16D035
:1040000080EA010000F00040704710B500F0CFF8E2
:10401000097EFC3E00F005B880EA010000F0004097
:10402000704780EA010000F0004000F006B912F489
:104030007F0F04BF0248704780EA010000F0FDB81E
:104040000000C07FC10DD1F19E0206DB4FEA0023C4
:1040500043F0004323FA02F07047004207D54FEACD
:104060004001B1F1FE4F02D24FF00000704710B591
:1040700000F09DF849922480002070476FEA2000EC
:1040800070470000B0FA80F310FA03F2C3F19D0309
:104090000AD0D90501EB1220530638BF704700F152
:1040A000010008BF20F00100704700004FF47F0CB2
:1040B0001CEAD0121EBF1CEAD11392EA0C0F93EA3D
:1040C0000C0F00F0478090EA010F48BF42F4807265
:1040D0004FF0004C4CEA00204CEA012102EB0302B5
:1040E000A0FB0113A2F50002002918BF43F0010351
:1040F0005B0028BF4FEA330342EB22425FEA132CF6
:104100004CEBC2502EBFBCEB436FB2F57C0F704737
:104110004FEA036CBCF1004F08BF20F00100B2F57C
:104120007C0F38BF70470BD582F0FF0212F5803F3D
:10413000C8BF704700F1C040D8BF00F000407047D2
:1041400000F5000C5FEA4C0C48BF7047B0F1C0406E
:1041500000F073B890EA010F0CEAD11348BF42F4A3
:104160008072624538BF634504D280EA010000F0E6
:104170000040704710B500F01AF800BF8900013EFA
:1041800000F007B800F009B85FEA410C5FEA1C6C68
:1041900008D080EA010000F050B85FEA400C5FEA06
:1041A0001C6CF6D14FF00040A0F5800070470EF176
:1041B000020E2EF0030E5EF8044B244204D44FEAA4
:1041C0004102B2F17F4F11D84FEA4003B3F17F4F64
:1041D0000CD80ED14FEAD07CB2F17F4F0CEB4C0CD7
:1041E0000CF1020C08BF4CEBD17C04E04FF0080C42
:1041F00001E04FEAD17C0CEB4C0324FA03F404F009
:104200000704B4F1040C06D20EEB840CBDE8104098
:104210004CF0010C6047DFE80CF0070802024FF099
:104220000040A0F5800010BD0846420018BFD2F142
:10423000807288BF00F0004010BDFF2141EAD050DD
:10424000C005704780F0004090EA010F7FF5DDADBA
:1042500081F0004100F007B890EA010F48BF81F0FB
:1042600000413FF5D2AD421A04D882F00042A0EBE3
:10427000020011444FEAD0524FF07F4C1CEA410F2C
:10428000A2EBD15318BF9CEA026F4AD04FF0004C0A
:104290004CEA00204CEA012121FA03FCB0EB0C0CA3
:1042A0000FD412F0FE0F36D05FEA4C001DD500127D
:1042B00040EBC25038BF70471CF03F0F18BF70472B
:1042C0000BE0A2F101025FEA1C2040EBC25038BFB4
:1042D00070471CF07F0F18BF7047C3F1200399404F
:1042E00014BF401E20F00100704780084FEA1223DF
:1042F00008BF7047B0FA80FCA2EB0C02CCF1280C8E
:1043000060FA0CF093EA122F04BF00EBC250704722
:104310004FEAC3707047130A5FEADC1008BF7047AA
:10432000F6E79CEA026F04D010EA5C0F08BF002099
:10433000704710B5FFF73BFF40DFF63E81F00040CD
:104340007047010202030405060708090A0B0C0D59
:104350000E0F1010010202030405060708090A0BDC
:104360000C0D0E0F101000000000000000000102F4
:10437000030406070809000000000102030400000E
:10438000A0430008000000203C00000028010008B5
:10439000DC4300083C000020C41000004401000879
:1043A00000000000000000000100000010000000FC
:1043B000000000000024F4000011000000000000D4
:1043C00000000000000000000000000000000000ED
:0C43D000000000000000000000000000E1
:04000005080000ED02
:00000001FF
